S0110000496E7075745F4156522E73726563BB
S11300000C9435000C945D000C945D000C945D0020
S11300100C945D000C945D000C945D000C945D00E8
S11300200C945D000C945D000C945D000C945D00D8
S11300300C945D000C945D000C945D000C945D00C8
S11300400C945D000C945D000C945D000C945D00B8
S11300500C945D000C945D000C945D000C945D00A8
S11300600C945D000C945D00950311241FBECFEF2A
S1130070D8E0DEBFCDBF11E0A0E0B1E0ECE6FDE0EA
S113008002C005900D92A03EB107D9F722E0A0EE80
S1130090B1E001C01D92AE30B207E1F710E0C5E354
S11300A0D0E004C02197FE010E94C403C433D107E9
S11300B0C9F70E9460030C94B4060C9400000197E5
S11300C099F46F3F7F4F81F4809108019091090169
S11300D090930D0280930C0280910A0190910B0180
S11300E090930B0280930A0208959BB19F70282F6E
S11300F0207F922B9BB99BB19B7F9BB99BB198604E
S11301009BB932E03A95F1F700C09BB1977F9BB958
S1130110EFE8F1E03197F1F700C000002BB1F0E116
S11301208F9FC0011124922F9F70892B8BB98BB1A3
S113013088608BB932E03A95F1F700C08BB1877FC4
S11301408BB98FE99FE00197F1F700C00000089593
S11301509BB19F70282F207F922B9BB99BB19460F9
S11301609BB99BB198609BB932E03A95F1F700C016
S11301709BB1977F9BB9EFE8F1E03197F1F700C0AD
S113018000002BB1F0E18F9FC0011124922F9F70CA
S1130190892B8BB98BB188608BB932E03A95F1F732
S11301A000C08BB1877F8BB98FE99FE00197F1F78E
S11301B000C0000008958FEF8AB98FE39CE901978E
S11301C0F1F700C0000082E00E94750088E20E94FE
S11301D075008CE00E94750086E00E94750081E045
S11301E00E9475008FE99FE00197F1F700C00000BD
S11301F008950F931F93CF93DF938C01C0E0D0E059
S1130200F801EC0FFD1F8081882321F00E94A800D3
S11302102196F6CFDF91CF911F910F91089581E040
S11302200E9475008FE99FE00197F1F700C000007C
S113023080E80E947500089526B130E002C035952B
S113024027958A95E2F720FD02C081E0089580E0B9
S1130250089580E090E00E941C01882361F08CE006
S113026091E00E94F90080EC0E9475008DE191E01C
S11302700E94F900EECF81E090E00E941C018823E7
S113028061F08EE291E00E94F90080EC0E9475001A
S11302908DE191E00E94F900DCCF82E090E00E94C1
S11302A01C01882361F08DE391E00E94F90080EC49
S11302B00E9475008DE191E00E94F900CACF83E0AD
S11302C090E00E941C018823A9F08BE491E00E9435
S11302D0F90080EC0E9475008DE191E00E94F90024
S11302E02FEF84E39CE0215080409040E1F700C070
S11302F0000008950E940F01ACCFCF93DF9382E0FA
S11303000E94750080910B028F9380910A028F9353
S1130310CAE5D1E0DF93CF9380E092E09F938F937F
S11303200E94CA038DE591E00E94F90080EC0E94CE
S1130330750089E291E00E94F90080E092E00E9459
S1130340F90085E891E00E94F90080910D028F93F5
S113035080910C028F93DF93CF9386EF91E09F936C
S11303608F930E94CA0386EF91E00E94F9002FEF59
S113037031EE84E0215030408040E1F700C00000BD
S113038083E090E00E941C012DB73EB7245F3F4FED
S11303900FB6F8943EBF0FBE2DBF882309F4AFCF2C
S11303A00E940F01DF91CF910895009709F0F9C0E1
S11303B082E00E9475008EE691E00E94F90080912F
S11303C00B018F9380910A018F938AE591E09F93AB
S11303D08F938CEE91E09F938F930E94CA038CEECF
S11303E091E00E94F9008CE291E00E94F90080E023
S11303F090E00E941C010F900F900F900F900F90AF
S11304000F90882371F080910A0190910B0101965D
S113041068E170E00E949C0390930B0180930A01B1
S113042036C081E090E00E941C01882391F0809105
S11304300A0190910B01019790930B0180930A019B
S113044099232CF587E190E090930B0180930A01A6
S11304501EC082E090E00E941C01882391F08091EC
S11304600A0190910B0190930B0280930A022FEFE3
S113047081EE94E0215080409040E1F700C00000FC
S113048010C083E090E00E941C018111A6C02FEFF0
S113049081EE94E0215080409040E1F700C00000DC
S11304A087CF82E00E9475008BE791E00E94F900FB
S11304B0809109018F93809108018F938AE591E0DF
S11304C09F938F9382EE91E09F938F930E94CA0330
S11304D082EE91E00E94F9008CE291E00E94F90022
S11304E080E090E00E941C010F900F900F900F90FD
S11304F00F900F90882371F0809108019091090169
S113050001966CE370E00E949C0390930901809330
S113051008013DC081E090E00E941C01882391F015
S113052080910801909109010197909309018093AA
S11305300801992364F58BE390E09093090180937B
S1130540080125C082E090E00E941C018823C9F0C4
S1130550809108019091090190930D0280930C02FF
S113056082E00E94750089E891E00E94F9002FEF73
S113057081EE94E0215080409040E1F700C00000FB
S1130580089583E090E00E941C01811126C02FEFA2
S113059081EE94E0215080409040E1F700C00000DB
S11305A080CF8130910561F40E947D012FEF81EEAF
S11305B094E0215080409040E1F700C0000008958D
S11305C0029759F40E9429012FEF81EE94E0215003
S11305D080409040E1F700C00000089582E00E944E
S11305E07500E091E001F091E101EE0FFF1FE05092
S11305F0FF4F808191810E94F9002FEF81EE94E0FA
S1130600215080409040E1F700C0000080E090E07D
S11306100E941C01882381F08091E0019091E10106
S1130620019660910601709107010E949C039093CA
S1130630E1018093E001D2CF81E090E00E941C01AF
S11306408823A9F08091E0019091E10101979093B2
S1130650E1018093E00199230CF6809106019091C9
S1130660070101979093E1018093E001B7CF82E005
S113067090E00E941C01882391F00E940F012FEF4B
S113068081EE94E0215080409040E1F700C00000EA
S11306908091E0019091E1010E94D5019FCF83E018
S11306A090E00E941C01882309F498CF2FEF81EE7B
S11306B094E0215080409040E1F700C000008ECFCC
S11306C017B80E94DB008BE991E00E94F9002FEF3C
S11306D089E698E1215080409040E1F700C0000095
S11306E0E091E001F091E101EE0FFF1FE050FF4FB8
S11306F0808191810E94F9002FEF81EE94E02150D6
S113070080409040E1F700C000000E940F018091FA
S1130710E0019091E1010E94D50183E090E00E9404
S11307201C018823D1F30E94EE026FEF7FEF81E07A
S113073090E00E945F00089597FB072E16F4009442
S113074007D077FD09D00E94B00307FC05D03EF422
S1130750909581959F4F0895709561957F4F089569
S1130760AA1BBB1B51E107C0AA1FBB1FA617B707D3
S113077010F0A61BB70B881F991F5A95A9F78095EF
S11307809095BC01CD010895EE0FFF1F0590F491E3
S1130790E02D0994AEE0B0E0E0EDF3E00C948B06BC
S11307A00D891E8986E08C831A8309838FEF9FE766
S11307B09E838D83AE01475E5F4F6F89788DCE0136
S11307C001960E94EC03EF81F885E00FF11F10827F
S11307D02E96E4E00C94A706ABE0B0E0E2EFF3E081
S11307E00C947D066C017B018A01FC011782168240
S11307F0838181FFCCC1CE0101963C01F601938136
S1130800F70193FD859193FF81917F01882309F47A
S1130810BAC1853239F493FD859193FF81917F01AB
S1130820853229F4B60190E00E94E305E7CF912CCC
S1130830212C312CFFE1F315D8F08B3279F038F408
S1130840803279F08332A1F4232D20611DC08D32D2
S113085061F0803369F4232D216016C0832D8260FA
S1130860382EE32DE4603E2E2AC0F32DF8601DC01F
S113087037FC2DC020ED280F2A3040F08E32B9F419
S113088036FC81C1232D2064322E19C036FE06C0E9
S11308908AE0989E200D1124922E11C0EAE02E9E2B
S11308A0200D1124222EF32DF0623F2E08C08C3629
S11308B021F4832D8068382E02C0883641F4F70174
S11308C093FD859193FF81917F018111B3CF982F7F
S11308D09F7D9554933028F40C5F1F4F9FE39983B9
S11308E00DC0833631F0833771F0833509F059C078
S11308F021C0F801808189830E5F1F4F882483946F
S1130900912C530113C02801F2E04F0E511CF80141
S1130910A080B18036FE03C0692D70E002C06FEF85
S11309207FEFC5010E94D8054C018201F32DFF77AA
S11309303F2E16C0280122E0420E511CF801A0806F
S1130940B18036FE03C0692D70E002C06FEF7FEF07
S1130950C5010E94CD054C01F32DF0683F2E8201A4
S113096033FC1BC0822D90E088169906B0F4B601C2
S113097080E290E00E94E3052A94F4CFF50137FC6D
S1130980859137FE81915F01B60190E00E94E305F5
S113099021102A9421E0821A91088114910471F79C
S11309A0E8C0843611F0893641F5F80137FE07C0F6
S11309B060817181828193810C5F1F4F08C06081C7
S11309C07181072E000C880B990B0E5F1F4FF32DBE
S11309D0FF763F2E97FF09C090958095709561959D
S11309E07F4F8F4F9F4FF0683F2E2AE030E0A301E6
S11309F00E941F06882E861845C0853731F4232DA2
S1130A002F7EB22E2AE030E025C0932D997FB92E97
S1130A108F36C1F018F4883579F0B5C0803719F0F5
S1130A20883721F0B0C0E92FE061BE2EB4FE0DC0BE
S1130A30FB2DF460BF2E09C034FE0AC0292F2660A6
S1130A40B22E06C028E030E005C020E130E002C04C
S1130A5020E132E0F801B7FE07C060817181828134
S1130A6093810C5F1F4F06C06081718180E090E02C
S1130A700E5F1F4FA3010E941F06882E8618FB2DB0
S1130A80FF773F2E36FE0DC0232D2E7FA22E891414
S1130A9058F434FE0BC032FC09C0832D8E7EA82E80
S1130AA005C0B82CA32C03C0B82C01C0B92CA4FEDB
S1130AB00FC0FE01E80DF11D8081803321F49A2DD1
S1130AC0997EA92E09C0A2FE06C0B394B39404C0B3
S1130AD08A2D867809F0B394A3FC11C0A0FE06C049
S1130AE0B21488F4280C922C9B180EC0B21460F433
S1130AF0B60180E290E00E94E305B394F7CFB2140C
S1130B0018F42B1802C0982C212CA4FE10C0B60196
S1130B1080E390E00E94E305A2FE17C0A1FC03C09D
S1130B2088E790E002C088E590E0B6010CC08A2D09
S1130B30867859F0A1FE02C08BE201C080E2A7FCD6
S1130B408DE2B60190E00E94E305891438F4B60101
S1130B5080E390E00E94E3059A94F7CF8A94F3012E
S1130B60E80DF11D8081B60190E00E94E30581103B
S1130B70F5CF222009F442CEB60180E290E00E9433
S1130B80E3052A94F6CFF6018681978102C08FEFA0
S1130B909FEF2B96E2E10C949906FC0105906150BD
S1130BA070400110D8F7809590958E0F9F1F08957F
S1130BB0FC016150704001900110D8F78095909528
S1130BC08E0F9F1F08950F931F93CF93DF93FB0105
S1130BD0238121FD03C08FEF9FEF2CC022FF16C09D
S1130BE046815781248135814217530744F4A081FB
S1130BF0B1819D012F5F3F4F318320838C932681E8
S1130C0037812F5F3F4F3783268314C08B01EC015C
S1130C10FB010084F185E02D0995892BE1F6D801CB
S1130C2016968D919C911797019617969C938E9387
S1130C301697CE01DF91CF911F910F910895FA017C
S1130C40AA27283051F1203181F1E8946F936E7F07
S1130C506E5F7F4F8F4F9F4FAF4FB1E03ED0B4E0F8
S1130C603CD0670F781F891F9A1FA11D680F791F39
S1130C708A1F911DA11D6A0F711D811D911DA11D4A
S1130C8020D009F468943F912AE0269F112430195A
S1130C90305D3193DEF6CF010895462F4770405DF5
S1130CA04193B3E00FD0C9F7F6CF462F4F70405DA4
S1130CB04A3318F0495D31FD4052419302D0A9F7FF
S1130CC0EACFB4E0A6959795879577956795BA95F9
S1130CD0C9F700976105710508959B01AC010A2EBF
S1130CE006945795479537952795BA95C9F7620F96
S1130CF0731F841F951FA01D08952F923F924F923A
S1130D005F926F927F928F929F92AF92BF92CF9297
S1130D10DF92EF92FF920F931F93CF93DF93CDB7A0
S1130D20DEB7CA1BDB0B0FB6F894DEBF0FBECDBF18
S1130D3009942A88398848885F846E847D848C84E9
S1130D409B84AA84B984C884DF80EE80FD800C81F2
S1130D501B81AA81B981CE0FD11D0FB6F894DEBFD5
S10F0D600FBECDBFED010895F894FFCF45
S1130D6CAC01BD01CE01030014000800202020506A
S1130D7C7265737365642055502020200020202058
S1130D8C2020202020202020202020202000202073
S1130D9C5072657373656420444F574E00202020B5
S1130DAC50726573736564204F4B0020205072653C
S1130DBC73736564204241434B0025640043757290
S1130DCC72656E742074696D653A20202000456E3E
S1130DDC7465722048723A20202000456E74657246
S1130DEC204D696E73203A2000202054696D6520D3
S1130DFC69732073657421202020003C3C2020570B
S1130E0C656C636F6D652120203E3E003C3C2020C8
S1130E1C5345542054494D4520203E3E003C3C2033
S1130E2C564945572054494D4520203E3E003C3CF4
S1130E3C425554544F4E20434845434B3E3E0000CC
S9030000FC
