:020000040000FA
:100000000C9463000C948B000C948B000C948B006C
:100010000C948B000C948B000C948B000C948B0034
:100020000C948B000C948B000C948B000C948B0024
:100030000C948B000C948B000C948B000C948B0014
:100040000C94E1060C948B000C948B000C948B00A8
:100050000C948B000C948B000C948B000C948B00F4
:100060000C948B000C948B000000000024002700EF
:100070002A0000000000250028002B0000000000DE
:1000800023002600290004040404040404040202DA
:100090000202020203030303030301020408102007
:1000A0004080010204081020010204081020000012
:1000B0000008000201000003040700000000000027
:1000C00000003408740811241FBECFEFD8E0DEBF53
:1000D000CDBF22E0AAEDB1E001C01D92A032B2076F
:1000E000E1F711E0A0E0B1E0E6E7F6E102C005903B
:1000F0000D92AA3DB107D9F710E0C2E6D0E004C0E6
:100100002197FE010E943609C136D107C9F70E9426
:100110002B070C942E0B0C940000AF92BF92CF9241
:10012000DF92EF92FF920F931F93CF93DF936C01B7
:100130007B018B01040F151FEB015E01AE18BF0898
:10014000C017D10759F06991D601ED91FC9101904A
:10015000F081E02DC6010995892B79F7C501DF9162
:10016000CF911F910F91FF90EF90DF90CF90BF90B4
:10017000AF900895833081F028F4813099F0823077
:10018000A9F008958730A9F08830C9F08430B1F41F
:10019000809180008F7D03C0809180008F77809355
:1001A0008000089584B58F7784BD089584B58F7DD0
:1001B000FBCF8091B0008F778093B000089580913D
:1001C000B0008F7DF9CFCF93DF93282F30E0F90176
:1001D000E255FF4F8491F901E656FF4FD491F901A2
:1001E000EA57FF4FC491CC23A1F081110E94BA00BD
:1001F000EC2FF0E0EE0FFF1FE458FF4FA591B491F4
:10020000EC91ED2381E090E009F480E0DF91CF9163
:10021000089580E090E0FACF1F93CF93DF93282FCB
:1002200030E0F901E255FF4F8491F901E656FF4FA6
:10023000D491F901EA57FF4FC491CC23A9F0162FAE
:1002400081110E94BA00EC2FF0E0EE0FFF1FEE5874
:10025000FF4FA591B4918FB7F894EC91111108C09C
:10026000D095DE23DC938FBFDF91CF911F9108954E
:10027000DE2BF8CFCF93DF9390E0FC01E656FF4FE3
:1002800024918A579F4FFC0184918823D1F090E0FC
:10029000880F991FFC01E859FF4FA591B491FC010B
:1002A000EE58FF4FC591D49161110EC09FB7F894DD
:1002B0008C91E22FE0958E238C932881E223E883B2
:1002C0009FBFDF91CF9108958FB7F894EC91E22B07
:1002D000EC938FBFF6CF3FB7F8948091EC019091EB
:1002E000ED01A091EE01B091EF0126B5A89B05C0EC
:1002F0002F3F19F00196A11DB11D3FBFBA2FA92FA5
:10030000982F8827BC01CD01620F711D811D911DA1
:1003100042E0660F771F881F991F4A95D1F708950D
:100320008F929F92AF92BF92CF92DF92EF92FF9205
:100330006B017C010E946B014B015C01C114D10473
:10034000E104F104B9F00E946B01681979098A0986
:100350009B09683E73408105910580F321E0C21A34
:10036000D108E108F10888EE880E83E0981EA11CF0
:10037000B11CE4CFFF90EF90DF90CF90BF90AF9093
:100380009F908F900895089590E080E00895CF9316
:10039000C82F8091E20181111CC08C2F0E94E300C4
:1003A000892B09F040C02FB7F8948091E801909113
:1003B000E901A091EA01B091EB012FBF8093DE012A
:1003C0009093DF01A093E001B093E10181E080937D
:1003D000E2018091E201813031F58C2F0E94E3002F
:1003E000019709F52FB7F8948091E8019091E90100
:1003F000A091EA01B091EB012FBF1092E201409170
:10040000DE015091DF016091E0017091E101841BF8
:10041000950BA60BB70B8093DA019093DB01A093A9
:10042000DC01B093DD0181E04091DA015091DB0104
:100430006091DC017091DD01493E53406105710519
:1004400008F480E0CF9108958CE00E94E300892BAE
:1004500091F08BE00E94E300892B81F08AE00E94FA
:10046000E300892B71F089E00E94E300892B61F79A
:1004700089E090E008958CE090E008958BE090E0B2
:1004800008958AE090E00895FC0101900020E9F7CA
:100490003197AF01481B590BBC0184E092E00C94EA
:1004A0008D008F929F92AF92BF920F931F93CF9325
:1004B000DF93CDB7DEB7A1970FB6F894DEBF0FBEBE
:1004C000CDBF19A2423008F44AE08E010F5D1F4FE4
:1004D000842E912CB12CA12CA50194010E9400091D
:1004E000E62FB901CA01EA30F4F4E05DD801EE93D9
:1004F0008D01232B242B252B79F790E080E010979A
:1005000019F0CD010E944402A1960FB6F894DEBF07
:100510000FBECDBFDF91CF911F910F91BF90AF90D4
:100520009F908F900895E95CE1CF0F931F93CF9335
:10053000DF93EC0188819981009759F02A813B81F2
:100540002617370730F081E0DF91CF911F910F918F
:1005500008958B016F5F7F4F0E94610A009759F0E9
:10056000998388831B830A832C813D81232B59F730
:10057000FC011082E8CF80E0E7CFEF92FF920F936B
:100580001F93CF93DF936115710541F480E0DF91F4
:10059000CF911F910F91FF90EF9008954115510554
:1005A000B1F07B01EC010C811D81040F151FB80116
:1005B0000E949502882351F3288139818C819D8185
:1005C000B701820F931F0E94270B1D830C8381E0CC
:1005D000DECFCF93DF93EC0188819981009711F0F2
:1005E0000E94D809198218821D821C821B821A82DD
:1005F000DF91CF910895EF92FF920F931F93CF93C6
:10060000DF93EC017B018A01BA010E9495028111FE
:100610000BC0CE010E94E902CE01DF91CF911F9164
:100620000F91FF90EF9008951D830C83B70188818F
:1006300099810E94270BF0CFEF92FF920F931F93A7
:10064000CF93DF93CDB7DEB762970FB6F894DEBFD6
:100650000FBECDBF8C01CB01F80111821082138235
:100660001282158214824AE09E012F5F3F4F79016A
:10067000B9010E948008F70101900020E9F7319745
:10068000AF014E195F09B701C8010E94FB026296D3
:100690000FB6F894DEBF0FBECDBFDF91CF911F9193
:1006A0000F91FF90EF900895CF93DF93EC01FB0142
:1006B0008617970749F0608171816115710541F0D6
:1006C000448155810E94FB02CE01DF91CF910895B4
:1006D0000E94E902F9CFFC0111821082138212827A
:1006E00015821482FB0101900020E9F73197AF01D8
:1006F000461B570B0C94FB02FC01808191810097F3
:1007000011F00C94D8090895CF93DF93EC0160E0C9
:100710008E810E940C0161E08E810E940C0160E0DC
:100720008E810E940C018BE891E00197F1F7DF9137
:10073000CF910895CF92DF92EF92FF920F931F9384
:10074000CF93DF936C017C0187E0E80EF11CD0E0D1
:10075000C0E0062F10E0B8010C2E02C07595679519
:100760000A94E2F76170F70181917F010E940C0108
:100770002196C430D10579F7C601DF91CF911F9141
:100780000F91FF90EF90DF90CF900C948403CF9265
:10079000DF92EF92FF920F931F93CF93DF93EC01C1
:1007A000F62E642F8C810E940C018D818F3F19F0F1
:1007B00060E00E940C010F2D10E08F8584FF25C0A2
:1007C0006E0187E0C80ED11CF12CE12CB8010E2C73
:1007D00002C0759567950A94E2F76170F601819100
:1007E0006F010E940C01FFEFEF1AFF0A88E0E81684
:1007F000F10461F7CE01DF91CF911F910F91FF902E
:10080000EF90DF90CF900C948403B80184E075954D
:1008100067958A95E1F7CE010E949A036F2DCE016C
:10082000DF91CF911F910F91FF90EF90DF90CF90CC
:100830000C949A0340E0682F84E092E00C94C70384
:1008400081E00E941A048BE39FE10197F1F708957C
:10085000CF93DF93823029F49091130298609093A4
:100860001302809317021092180280E480931902F9
:1008700080E180931A0280E580931B0261E0809101
:1008800008020E943A01809109028F3F19F061E04D
:100890000E943A0161E080910A020E943A01C4E09C
:1008A000D2E09E01245032408091130284FD0BC09F
:1008B00084E090E021962817390744F461E08E81A6
:1008C0000E943A01EECF88E090E0F4CF8BE39DE008
:1008D0000197F1F760E0809108020E940C0160E04E
:1008E00080910A020E940C01809109028F3F19F049
:1008F00060E00E940C018091130284FD34C063E02B
:1009000084E092E00E949A03CBE4D6E4CE01019702
:10091000F1F763E084E092E00E949A032197F1F7F7
:1009200063E084E092E00E949A0383E592E00197FD
:10093000F1F762E084E092E00E949A038091130252
:1009400080620E941A0484E0809314028CE00E946A
:100950001A040E94200482E08093150286E0DF9151
:10096000CF910C941A0480620E941A048BE496E4DE
:100970000197F1F78091130280620E941A0483E5C7
:1009800092E00197F1F78091130280620E941A04AD
:10099000D5CF90911702691710F06FEF690FE62F0E
:1009A000F0E0EC5FFD4F9489890F80680C941A0485
:1009B000CF93DF93EC010E94200460E080E00E946E
:1009C000C9044C815D816881798184E092E0DF9186
:1009D000CF910C948D0041E00E94C70381E090E02C
:1009E0000895CF92DF92EF92FF926B017C0141E07C
:1009F0006DE284E092E00E94C70366277727CB016F
:100A00006C197D098E099F094AE00E9451020196E6
:100A1000FF90EF90DF90CF900895EF92FF920F93A9
:100A20001F93CF93DF93CDB7DEB762970FB6F894DD
:100A3000DEBF0FBECDBF009709F012C107E110E085
:100A400098E1E92EF12C6091000170910101CE0135
:100A500007960E941C0366E171E0CE0101960E9498
:100A60006B034B855C856F817885CE0101960E9472
:100A7000BD02811104C0CE0101960E94E9021E86CA
:100A80001D86188A1F861A8A198ABE016F5F7F4FDA
:100A9000CE010D960E945403CE010D960E94D804FB
:100AA000CE010D960E947C03CE0101960E947C032C
:100AB000CE0107960E947C030E9424028C3091058F
:100AC00099F480910001909101010196B7010E9473
:100AD000EC0890930101809300016CE271E080E0EA
:100AE00090E00E949001AFCF8B30910561F480912E
:100AF000000190910101019797FFEBCF1093010145
:100B000000930001EACF8A30910509F064C080911A
:100B10000001909101019093E4018093E3016CE264
:100B200071E080E090E00E9490010BE310E08CE324
:100B3000E82EF12C6091020170910301CE0107961D
:100B40000E941C0360E271E0CE0101960E946B03DB
:100B50004B855C856F817885CE0101960E94BD0230
:100B6000811104C0CE0101960E94E9021E861D86F5
:100B7000188A1F861A8A198ABE016F5F7F4FCE01BD
:100B80000D960E945403CE010D960E94D804CE010A
:100B90000D960E947C03CE0101960E947C03CE013B
:100BA00007960E947C030E9424028C30910519F55F
:100BB00080910201909103010196B7010E94EC0817
:100BC00090930301809302016CE271E080E090E079
:100BD0000E949001AFCF099709F07FCF62960FB6C0
:100BE000F894DEBF0FBECDBFDF91CF911F910F9163
:100BF000FF90EF9008958B30910561F48091020190
:100C000090910301019797FFDBCF109303010093AD
:100C10000201DACF8A309105F9F4809102019091B6
:100C200003019093E6018093E50160E080E00E947B
:100C3000C9048CE291E00E94440261E080E00E94DD
:100C4000C9048CE391E00E9444026CE271E080E010
:100C500090E00E949001C2CF099709F0B5CFBECFB6
:100C60008130910509F044C060E080E00E94C90431
:100C70008DE491E00E94440261E084E00E94C90496
:100C80006091E3017091E401072E000C880B990B31
:100C900097FF26C00E94F10461E087E00E94C9042A
:100CA0008EE191E00E94440261E089E00E94C90463
:100CB0006091E5017091E601072E000C880B990BFD
:100CC00097FF12C00E94F1046CE271E080E090E0B6
:100CD0000E94900189E00E94E300892B29F6B5CF9C
:100CE0004AE00E945102D8CF4AE00E945102ECCF64
:100CF000029709F073CF8CE00E94E300892B09F57D
:100D00008CE090E00E94C701811115C06EE571E092
:100D1000CE0101960E946B03CE0101960E94D80479
:100D2000CE0101960E947C036CE271E080E090E0CD
:100D30000E949001E0CF8CE090E00E94C7018130DA
:100D400029F38BE00E94E300892B79F48BE090E09B
:100D50000E94C701811103C06BE671E0D9CF8BE01F
:100D600090E00E94C7018130B9F38AE00E94E3005D
:100D7000892B79F48AE090E00E94C701811103C0B9
:100D80006AE771E0C5CF8AE090E00E94C701813038
:100D9000B9F389E00E94E300892B51F089E090E0EB
:100DA0000E94C701813009F450CF0E942004A3CFD4
:100DB00089E090E00E94C7018111F0CF67E871E0FF
:100DC000A7CF1F920F920FB60F9211242F933F932C
:100DD0008F939F93AF93BF938091E8019091E90126
:100DE000A091EA01B091EB013091E70123E0230FDC
:100DF0002D3758F50196A11DB11D2093E701809371
:100E0000E8019093E901A093EA01B093EB0180918E
:100E1000EC019091ED01A091EE01B091EF010196EE
:100E2000A11DB11D8093EC019093ED01A093EE0103
:100E3000B093EF01BF91AF919F918F913F912F910F
:100E40000F900FBE0F901F90189526E8230F029663
:100E5000A11DB11DD2CFCF93DF9300D000D000D021
:100E6000CDB7DEB7789484B5826084BD84B58160E7
:100E700084BD85B5826085BD85B5816085BD809165
:100E80006E00816080936E001092810080918100DD
:100E900082608093810080918100816080938100D5
:100EA000809180008160809380008091B100846097
:100EB0008093B1008091B00081608093B0008091F8
:100EC0007A00846080937A0080917A0082608093B7
:100ED0007A0080917A00816080937A0080917A0014
:100EE000806880937A001092C10060E08CE00E94DC
:100EF0003A0160E08BE00E943A0160E08AE00E94E3
:100F00003A0160E089E00E943A0161E08DE00E94D0
:100F10003A0182E00E94280486E991E00E9444029E
:100F200068EE73E080E090E00E9490018091020200
:100F30009091030226E0289FB001299F700D112493
:100F400060517E4F1A8219821C821B821E821D8272
:100F5000CE0101960E945403CE0101960E94D8044E
:100F6000CE0101960E947C0364EF71E080E090E086
:100F70000E94900180910202909103020E940D054F
:100F800086E0B82E93E0E92EF12C00E010E022E09C
:100F9000C22ED12C89E00E94E300892B09F05DC0AC
:100FA0008091020290910302B89EB001B99E700D2B
:100FB000112460517E4F1A8219821C821B821E826C
:100FC0001D82CE0101960E945403CE0101960E941B
:100FD000D804CE0101960E947C036CE271E080E0AF
:100FE00090E00E9490010E9424028C30910569F4E7
:100FF00080910202909103020196B7010E94EC08D1
:101000009093030280930202CBCF8B30910561F461
:101010008091020290910302019797FFF1CFD09245
:101020000302C0920202BCCF8A30910569F46CE2DF
:1010300071E080E090E00E94900180910202909126
:1010400003020E940D05ACCF099709F0A9CF6CE20D
:1010500071E080E090E00E9490010115110509F413
:1010600099CF0E94000096CF8091020190910301D8
:101070009093E6018093E501809100019091010138
:101080009093E4018093E301E4E0F2E013821282A2
:101090008EE091E09183808387E084838FEF858366
:1010A00086E0868385E0878384E0808783E081878C
:1010B00082E082871386148615861686178681E05D
:1010C0000E94280467EA71E080EF91E00E946B03C0
:1010D00068EB71E086EF91E00E946B0369EC71E0D0
:1010E0008CEF91E00C946B038CEF91E00E947C03F9
:1010F00086EF91E00E947C0380EF91E00C947C03EA
:10110000BB274A3031F4992322F4BDE290958195B2
:101110009F4F0C948C08BB27FB015527AA27880FEB
:10112000991FAA1FA41710F0A41B83955051B9F75B
:10113000A05DAA3308F0A95DA193009779F7B111DA
:10114000B1931192CB010C94A508DC01FC01672F2F
:1011500071917723E1F7329704C07C916D9370838E
:101160006291AE17BF07C8F308952F923F924F9236
:101170005F926F927F928F929F92AF92BF92CF9227
:10118000DF92EF92FF920F931F93CF93DF93CDB730
:10119000DEB7CA1BDB0B0FB6F894DEBF0FBECDBFA8
:1011A00009942A88398848885F846E847D848C8479
:1011B0009B84AA84B984C884DF80EE80FD800C8182
:1011C0001B81AA81B981CE0FD11D0FB6F894DEBF65
:1011D0000FBECDBFED01089597FB072E16F40094C6
:1011E00007D077FD09D00E94220907FC05D03EF404
:1011F000909581959F4F0895709561957F4F0895C3
:10120000A1E21A2EAA1BBB1BFD010DC0AA1FBB1F0A
:10121000EE1FFF1FA217B307E407F50720F0A21B7C
:10122000B30BE40BF50B661F771F881F991F1A94E9
:1012300069F760957095809590959B01AC01BD0113
:10124000CF010895AA1BBB1B51E107C0AA1FBB1FFA
:10125000A617B70710F0A61BB70B881F991F5A9542
:10126000A9F780959095BC01CD010895EE0FFF1F61
:101270000590F491E02D09940F931F93CF93DF9382
:101280008230910510F482E090E0E0911E02F0912E
:101290001F0230E020E0B0E0A0E0309799F4211583
:1012A000310509F44AC0281B390B24303105D8F523
:1012B0008A819B816115710589F1FB01938382838A
:1012C000FE0111C0408151810281138148175907E5
:1012D000E0F04817590799F4109761F012960C93B3
:1012E000129713961C933296CF01DF91CF911F91E5
:1012F0000F91089500931E0210931F02F4CF211541
:10130000310551F04217530738F0A901DB019A016A
:10131000BD01DF01F801C1CFEF01F9CF90931F02AA
:1013200080931E02CDCFFE01E20FF31F81939193B4
:101330002250310939832883D7CF20911C02309164
:101340001D02232B41F420910601309107013093B7
:101350001D0220931C0220910401309105012115EA
:10136000310541F42DB73EB7409108015091090174
:10137000241B350BE0911C02F0911D02E217F307CC
:10138000A0F42E1B3F0B2817390778F0AC014E5FF5
:101390005F4F2417350748F04E0F5F1F50931D0213
:1013A00040931C02819391939FCFF0E0E0E09CCFAB
:1013B000CF93DF930097E9F0FC01329713821282FA
:1013C000A0911E02B0911F02ED0130E020E01097C5
:1013D000A1F420813181820F931F20911C02309152
:1013E0001D022817390709F061C0F0931D02E09330
:1013F0001C02DF91CF910895EA01CE17DF07E8F5CF
:101400004A815B819E0141155105B1F7E901FB83DA
:10141000EA8349915991C40FD51FEC17FD0761F478
:10142000808191810296840F951FE90199838883B9
:10143000828193819B838A83F0E0E0E012968D9114
:101440009C9113970097B9F52D913C911197CD017F
:101450000296820F931F20911C0230911D022817C3
:10146000390739F6309751F510921F0210921E027B
:10147000B0931D02A0931C02BCCFD383C2834081D2
:101480005181840F951FC817D90761F44E5F5F4FD4
:1014900088819981480F591F518340838A819B819C
:1014A000938382832115310509F0B0CFF0931F0299
:1014B000E0931E029ECFFD01DC01C0CF1382128299
:1014C000D7CFB0E0A0E0E7E6FAE00C94B7088C01D3
:1014D000009751F4CB010E943C098C01C801CDB7A3
:1014E000DEB7E0E10C94D308FC01E60FF71F9C0186
:1014F00022503109E217F30708F49DC0D901CD91BC
:10150000DC911197C617D70798F0C530D10530F395
:10151000CE0104978617970708F3C61BD70B2297AF
:10152000C193D1936D937C93CF010E94D809D6CFFC
:101530005B01AC1ABD0A4C018C0E9D1EA0911E02CF
:10154000B0911F02512C412CF12CE12C109731F558
:1015500080911C0290911D028815990509F05CC0CC
:101560004616570608F058C0809104019091050175
:10157000009741F48DB79EB7409108015091090141
:10158000841B950BE817F90708F055C0F0931D026E
:10159000E0931C02F90171836083A0CF8D919C912F
:1015A000119712966C90129713967C901397A8152A
:1015B000B90559F56C0142E0C40ED11CCA14DB0414
:1015C00020F1AC014A195B09DA011296159780F0F7
:1015D0006282738251834083D9016D937C93E114BD
:1015E000F10471F0D7011396FC93EE93129776CF26
:1015F00022968C0F9D1FF90191838083F301EFCF19
:10160000F0931F02E0931E0269CF4816590608F4B2
:101610002C017D01D3019ACFCB010E943C097C01B2
:10162000009749F0AE01B8010E941E0BC8010E944C
:10163000D809870153CF10E000E050CFFB01DC0157
:1016400002C001900D9241505040D8F70895FB011F
:10165000DC0101900D920020E1F7089510E0C2E650
:10166000D0E004C0FE010E9436092196C336D1079E
:10167000C9F7F894FFCF0C0014000000200280008E
:1016800000000000EB048D00C401C301456E7465C9
:10169000722048723A00456E746572204D696E730F
:1016A0003A002054696D65206973207365742120A8
:1016B0002000204261636B20666F72204D656E755D
:1016C000202000202043757272656E742074696D4D
:1016D000653A200020205072657373656420555070
:1016E0000020205072657373656420444F574E008C
:1016F000202050726573736564204F4B002020508A
:10170000726573736564204241434B003C3C20206A
:1017100057656C636F6D652120203E3E003C3C2088
:10172000205345542054494D4520203E3E003C3C2A
:1017300020564945572054494D4520203E3E003C07
:101740003C425554544F4E20434845434B3E3E0087
:107E0000112484B714BE81FFF0D085E080938100F7
:107E100082E08093C00088E18093C10086E0809377
:107E2000C20080E18093C4008EE0C9D0259A86E02C
:107E300020E33CEF91E0309385002093840096BBD3
:107E4000B09BFECF1D9AA8958150A9F7CC24DD24C4
:107E500088248394B5E0AB2EA1E19A2EF3E0BF2EE7
:107E6000A2D0813461F49FD0082FAFD0023811F036
:107E7000013811F484E001C083E08DD089C08234E0
:107E800011F484E103C0853419F485E0A6D080C0E4
:107E9000853579F488D0E82EFF2485D0082F10E0AE
:107EA000102F00270E291F29000F111F8ED06801E7
:107EB0006FC0863521F484E090D080E0DECF843638
:107EC00009F040C070D06FD0082F6DD080E0C81688
:107ED00080E7D80618F4F601B7BEE895C0E0D1E017
:107EE00062D089930C17E1F7F0E0CF16F0E7DF06D8
:107EF00018F0F601B7BEE89568D007B600FCFDCFD4
:107F0000A601A0E0B1E02C9130E011968C91119780
:107F100090E0982F8827822B932B1296FA010C0160
:107F200087BEE89511244E5F5F4FF1E0A038BF0790
:107F300051F7F601A7BEE89507B600FCFDCF97BE46
:107F4000E89526C08437B1F42ED02DD0F82E2BD052
:107F50003CD0F601EF2C8F010F5F1F4F84911BD097
:107F6000EA94F801C1F70894C11CD11CFA94CF0C13
:107F7000D11C0EC0853739F428D08EE10CD085E9AC
:107F80000AD08FE07ACF813511F488E018D01DD067
:107F900080E101D065CF982F8091C00085FFFCCF94
:107FA0009093C60008958091C00087FFFCCF809118
:107FB000C00084FD01C0A8958091C6000895E0E648
:107FC000F0E098E1908380830895EDDF803219F02E
:107FD00088E0F5DFFFCF84E1DECF1F93182FE3DFCA
:107FE0001150E9F7F2DF1F91089580E0E8DFEE27F6
:047FF000FF270994CA
:027FFE00040479
:00000001FF
